:020000040800F2
:1000000000040020470100089B110008350E00087D
:100010009911000871090008B11E000800000000D5
:100020000000000000000000000000009919000816
:100030007309000800000000BD1200089B190008A9
:10004000670100086701000867010008351800080B
:1000500067010008670100086701000867010008E0
:1000600081090008C9090008670100086701000844
:1000700067010008670100086701000867010008C0
:1000800067010008670100086701000867010008B0
:1000900067010008670100086701000867010008A0
:1000A0006701000867010008670100086701000890
:1000B0009D19000867010008670100086701000832
:1000C0006701000867010008670100086701000870
:1000D0006701000867010008670100086701000860
:1000E0006701000867010008670100086701000850
:1000F0006701000867010008670100086701000840
:10010000670100086701000867010008670100082F
:10011000670100086701000867010008670100081F
:10012000670100086701000867010008670100080F
:10013000DFF80CD000F0F0FB00480047112E00085B
:1001400070020020704708488047084981F30888FA
:1001500007480047FEE7FEE7FEE7FEE7FEE7FEE7AB
:10016000FEE7FEE7FEE7FEE745010008700200201B
:1001700031010008F0B4144620F0004621F000419F
:1001800000F000428E4205D230460E4601460CB1C8
:1001900082F0004219B946EA0200F0BC7047C6F38B
:1001A000C753C1F3C7501D1AC6F3160040F4000030
:1001B000202D14DAC1F3160141F40001002C21FABC
:1001C00005F402D0A0EB040000E02044C5F12004B7
:1001D00001FA04F108D0494206D0401E04E014B1EF
:1001E0004FF0FF31F9E70121F0BC00F0CBBA90EA03
:1001F000010201D5012200E00022BBE790EA0102E2
:1002000001D5002200E00122B4E703460846594028
:1002100001D5002200E001221946ABE780EA010285
:1002200010B502F00042400001D04B0001D1002087
:1002300010BD4FEA106101EB1361C0F35600C3F328
:10024000560340F4000043F40003A0FB03307F3961
:100250004FEA00401C0400D0401C50EA134001D477
:100260004000491EC3B20C0604EBD010401C4008ED
:10027000802B01D120F00100002900DA002010437A
:1002800010BD420001D000EBC15070472DE9FF4D79
:1002900086B0089A834623F0004301F0004421F021
:1002A0000045129F801A4FF0FF384FF0000A1E469B
:1002B00075EB030108D25946284635469346064653
:1002C00008910FB184F000440023089886EA0301E6
:1002D0005840084305D1584645EA04010AB0BDE834
:1002E000F08DC5F30A51C6F30A50081ACDE904018E
:1002F000C5F3130040F480150498402837DAC6F39C
:10030000130040F48018049A0898414637B100F071
:1003100021FABBEB000065EB010104E000F01AFAE2
:1003200010EB0B006941054604980E46C0F14002EF
:100330004146089800F0FEF98346884677B1DBF124
:10034000000B4FF0000368EB480888EA03018BEAD2
:100350000300084302D05A1EAD185641059BCDE953
:1003600000A4029343465A463146284612E057B14C
:10037000059BCDE900A41BEB0800029345EB0801A7
:100380004346424606E0CDE900A402910023012243
:100390002946584600F037FAA0E7F8B50D4607465B
:1003A0005940002001F000414140404016461C46A3
:1003B000084301D0012300E0002300932346324686
:1003C00029463846FFF762FFF8BDF8B50D460746E7
:1003D0005940002001F000414140404016461C4673
:1003E000084301D0002300E0012300932346324656
:1003F00029463846FFF74AFFF8BDF8B50D460746CF
:100400005940002001F000414140404016461C4642
:10041000084301D0002300E0012300932B463A4615
:1004200021463046FFF732FFF8BD2DE9FF4D144657
:1004300081EA030200208AB002F00042CDE90802FE
:1004400023F00046034602460A9821F0004585EA5B
:1004500003015040084306D0002386EA030184EAE2
:100460000300084304D1002001460EB0BDE8F08D22
:10047000C5F30A51C6F30A5000270844A0F2F3302E
:10048000C5F31302CDE9030742F48015C6F3130246
:1004900042F48016BA46B846BB46069725E0E00708
:1004A00017D0049A0A988018024604900A9845EBDF
:1004B0000A0A121A7AEB050301D2012000E000209B
:1004C000C11710EB0800069A7941801841EB0B0B1D
:1004D000069018EB08000A9A7F4140EAD5789018F8
:1004E0006D4176080A904FEA3404002386EA03013E
:1004F00084EA03000843D2D1039BDDE90801CDE97A
:100500000001029353465946049A069800F07BF97D
:10051000ABE72DE9FF4D054681EA0302002086B0D6
:1005200002F0004223F00046CDE90402034621F028
:10053000004484EA03016840084306D00023089879
:1005400086EA03015840084304D1002001460AB05E
:10055000BDE8F08DC4F30A51C4F31302C6F30A5088
:1005600042F480144FF0000BC6F31302081A42F451
:10057000801200F2FE305F464FF40016D846DA468D
:100580000992039011E0DDE90823A81A74EB030136
:1005900006D3AD1A64EB030448EA07084AEA060AE0
:1005A00076084FEA37076D196441002386EA030194
:1005B00087EA03000843E6D184EA030185EA0300E1
:1005C000084315D0DDE9082384EA030185EA020027
:1005D000084303D15D464FF0004409E0A81A74EBCC
:1005E000030102D201255C4602E06FF001056C10A8
:1005F000DDE90401039BCDE90001029323462A466D
:100600005146404600F0FFF8A1E70022002802DA38
:1006100040424FF000429623002100F0B3B800F0B2
:10062000004220F00040C10DC0F3160040F400006D
:100630007F2901DA00207047962903DCC1F1960179
:10064000C84001E096398840002AF4D04042704703
:1006500000F0004230F0004001D101467047C30D68
:10066000C0F3160003F56073C108400742EA035265
:1006700011437047F0B40023054601F0004621F015
:10068000004484EA0301584008430ED0C4F3130029
:1006900040F48010230DC10041EA5570E900324654
:1006A000F0BCA3F5607300F06DB8F0BC704730B5D6
:1006B0000B46014600202022012409E021FA02F520
:1006C0009D4205D303FA02F5491B04FA02F52844BA
:1006D000151EA2F10102F1DC30BD2DE9F047002525
:1006E00091469A46074688462E46402418E0224600
:1006F0004146384600F02EF8B0EB090071EB0A01D4
:100700000ED322465146484600F014F83F1A68EBD3
:10071000010822460021012000F00CF845194E4145
:10072000201EA4F10104E2DC284631463A46434645
:10073000BDE8F087202A04DB0023203A00FA02F10A
:1007400006E000FA02F39140C2F12002D0400143DA
:1007500018467047202A04DB203A21FA02F00021D3
:100760007047D040C2F1200301FA03F31843D1408F
:100770007047002905DA401CB1F1004F01D120F08B
:100780000100704730B450EA01040BD130BC0020A6
:10079000704701F0010545EA510141EAC071400886
:1007A0005B1C01E04FF08074A042F2D24FF40004D1
:1007B00004E0400040EAD17049005B1EA042F8D33B
:1007C00000EBC350A0F5000030BC1044D1E700009E
:1007D000F0B504460D46002003F000414140404082
:1007E00017461E4608430BD0641C4FF0004386EAB0
:1007F000030145F1000557EA010001D124F001048D
:1008000020462946F0BD2DE9F00D88461D461943C6
:1008100007460023104359405840099E14464FF0A4
:10082000FF3A084311D1BDE8F00D01467047680852
:1008300004F0010242EA340440EAC7755FEA58084E
:100840004FEA370706F1010601E0DFF848B0BAEBDE
:1008500007027BEB0803EAD34FF4801A07E0FF1985
:1008600048EB080847EAD57724196D41761E381EF3
:1008700078EB0A01F3D33305A3F58013381C48EB5A
:100880000301DDE90723801859412B462246BDE8C4
:10089000F00D9DE7FFFF1F0021F000410A0DC1F39D
:1008A000130140F2FF3341F480119A4202DA002032
:1008B0000146704740F233439A42A2F2334202DCCF
:1008C0005242FFF747BFFFF735BF00002DE9F04167
:1008D00007460D46002001F00041414040401646C9
:1008E0001C464FF00048084302D17F4268EB0505E3
:1008F000002004F0004141404040084302D17642CC
:1009000068EB04043846294632462346994208BF1C
:100910009042BDE8F0810000064C074D06E0E0681B
:1009200040F0010394E8070098471034AC42F6D336
:10093000FFF702FCA0D10208C0D1020810B50120C7
:1009400000F08AFDBDE81040002000F085BD0000E9
:1009500002490844B0F8000C7047000000600040F5
:10096000024A1044A0F8001C7047000000600040DC
:10097000FEE7704700E0401E0028FCD170470000F1
:1009800010B5042000F064F8002817D0042000F00F
:100990003BF80B4A032110780A4C401CB0FBF1F3E2
:1009A00001FB130010702046FFF7E4FF2046FFF71D
:1009B000E1FF2046BDE81040FFF7DCBF10BD00009E
:1009C00000000020FFFF0F0010B5082000F040F8E5
:1009D000002814D0082000F017F80948094C0178C5
:1009E000491C01F0030101702046FFF7C3FF2046B8
:1009F000FFF7C0FF2046BDE81040FFF7BBBF10BDAA
:100A000011000020FFFF0F0001490860704700003F
:100A1000140401401CB50221042000F07BF90321DD
:100A2000042000F077F90820FFF7EEFF0420FFF71D
:100A3000EBFF00208DF8040008208DF805000C2045
:100A4000009001208DF80600684600F00FF81CBDEC
:100A5000054B01461A6800205B690A400B4202D030
:100A6000002A00D0012070470004014010B58379AE
:100A700020490268A3B3D1F800349343C1F800348D
:100A8000D1F8042403689A43C1F804240279046865
:100A90000A44D2F800342343C2F80034D1F80824C1
:100AA00003689A43C1F80824D1F80C2403689A43D8
:100AB000C1F80C244279102A0AD101F581610A6833
:100AC00003681A430A604A68006802434A6010BD1E
:100AD0001144D1F8002400680243C1F8002410BD7D
:100AE000FFE700790844D0F800149143C0F80014DF
:100AF000F5E700000000014004490A6822F01002F6
:100B00000A600A6802430A60704700000020024041
:100B1000034A116801F03801014311607047000079
:100B20000020024000B597B002200190002005216E
:100B3000CDE902014FF08051CDE906010490059006
:100B400008900821CDE909011021CDE90B100D9085
:100B50000E900902CDE90F0111901290149001A896
:100B60001590169008A800F017F80121002000F059
:100B700003F817B000BD00004FF0204202EB8000E8
:100B80000029016802D041F0010101E0014A114051
:100B900001607047FEFF0F00F0B5D0E902324168F6
:100BA0001943D0E90443224311431943D0E90623F2
:100BB00011431943D0E9082311431943D0E90A230B
:100BC0001143046819434FF0204242F82410816811
:100BD000082906D1016802EB81010B6843F040034C
:100BE0000B60016BD1E901431D020B68D1E903677A
:100BF00043EA041345EA06452B43D1E9054543EA98
:100C0000075343EA04610368294302EB83035960F5
:100C1000816AB1F5804F15D1416BD1E901431D02C5
:100C20000B68D1E9046743EA041345EA065489696D
:100C30002343006843EA07630B4302EB8000C0F8DC
:100C40000431F0BD00686FF0704102EB8000C0F825
:100C50000411F0BD2DE9F84340F20136ADF8006013
:100C60000324284F8DF8024010258DF80350694663
:100C7000384600F063F8ADF80040DFF88C908DF84E
:100C800002408DF803506946484600F057F8680165
:100C9000ADF800001820DFF874808DF80300694675
:100CA000404600F04BF8A801ADF8000004208DF894
:100CB00003006946404600F041F801217D2000F024
:100CC000B3FBADF800608DF802408DF80350694623
:100CD000384600F033F8ADF800408DF802408DF84A
:100CE00003506946484600F029F82020ADF800007E
:100CF0008DF802408DF803506946054800F01EF853
:100D0000BDE8F883000C01400018014000080140D4
:100D10000010014010B58A0721F003040649120FA4
:100D200021440F238C6893409C438C608B689040D7
:100D300003438B6010BD000000000140F0B5CB788C
:100D40000022DC0603F00F0301D58C7823430C88C6
:100D50004FF00F0C14F0FF0F4FF0010E1AD0066881
:100D60000D880EFA02F42540A5420FD195000CFA29
:100D700005F726EA070703FA05F6CD783E43282D46
:100D800001D1446102E0482D00D10461521C082ABF
:100D9000E6D306600A88FF2A1ED946685FF0000283
:100DA00002F108050EFA05F40D882540A5420FD181
:100DB00095000CFA05F726EA070703FA05F6CD7841
:100DC0003E43282D00D14461CD78482D00D10461E7
:100DD000521C082AE4D34660F0BD416170470161AE
:100DE0007047000010B5044640F2DB70A06001209F
:100DF000E0600A200A4920610968616109490968BF
:100E0000A16109490968E161084909682160084947
:100E1000096891FBF0F0FFF7F8FB606010BD00007F
:100E200020000020240000202800002004000020D2
:100E30000C000020FEE700002DE9F84301217C2092
:100E400000F0F2FA4CF20370ADF800000324DFF872
:100E5000AC908DF8024018268DF80360694648462C
:100E6000FFF76CFF4FF68070ADF80000DFF8908060
:100E70008DF802408DF8036069464046FFF75EFF3B
:100E80000220ADF800008DF8024010258DF80350C7
:100E900069461C48FFF752FF6F02ADF800708DF8ED
:100EA00002408DF8035069464846FFF747FF4FF46C
:100EB0000B60ADF800008DF802408DF803606946C4
:100EC0004846FFF73BFF2002ADF800008DF80240D6
:100ED0008DF8035069460C48FFF730FFADF800402D
:100EE0008DF802408DF8035069464046FFF726FF13
:100EF00039464846FFF773FFBDE8F8830014014008
:100F00000018014000100140000C014070B5FFF7CF
:100F100093FF884D02212846FFF75FFF864C20464D
:100F2000401EFDD102212846FFF759FF641EFDD166
:100F300043F20801E32000F009F91221E72000F054
:100F400005F941F23121EF2000F000F94FF48071F2
:100F5000012000F0FBF84FF4E061022000F0F6F809
:100F600041F23801032000F0F1F80021042000F0E4
:100F7000EDF840F20E21082000F0E8F800210920E9
:100F800000F0E4F800210A2000F0E0F800210C2035
:100F900000F0DCF800210D2000F0D8F800210F202F
:100FA00000F0D4F80021102000F0D0F80721112023
:100FB00000F0CCF80021122000F0C8F80021132026
:100FC00000F0C4F85D4C2046401EFDD141F2902156
:100FD000102000F0BBF840F22121112000F0B6F8FB
:100FE00023465B1EFDD11A21122000F0AFF82346E4
:100FF0002046401EFDD14FF4B051132000F0A6F85A
:101000002221292000F0A2F80A212B2000F09EF8CE
:101010005B1EFDD10021202000F098F80021212046
:1010200000F094F80021302000F090F840F20231F6
:10103000312000F08BF840F20221322000F086F8D7
:1010400040F20311352000F081F840F60C01362003
:1010500000F07CF840F20551372000F077F840F2BC
:101060000451382000F072F840F20771392000F086
:101070006DF840F201313C2000F068F841F20801BF
:101080003D2000F063F80021502000F05FF8EF21D0
:10109000512000F05BF80021522000F057F840F298
:1010A0003F11532000F052F84FF41C51602000F023
:1010B0004DF80121612000F049F800216A2000F07C
:1010C00045F80021802000F041F80021812000F047
:1010D0003DF80021822000F039F80021832000F043
:1010E00035F80021842000F031F80021852000F03F
:1010F0002DF81021902000F029F84FF4C0619220C3
:1011000000F024F80321932000F020F84FF48871B8
:10111000952000F01BF80021972000F017F800211F
:10112000982000F013F8BDE8704040F2331107201A
:1011300000F00CB800100140FFFF0500FFFF0A009F
:1011400022204FF0C0410880704700004FF0C0429D
:1011500010800148018070470000026030B5002116
:1011600040F23F13EF22084601F069FB084B094C9F
:1011700000204FF4963500BF03EB40014A7813F886
:10118000101041EA02212180401CA842F4D330BD56
:101190007C73000800000260FEE77047F8B500218C
:1011A0004FF0006000F07AF84FF48066304600F0AF
:1011B0006BF803208DF8000001258DF80150002404
:1011C0008DF802408DF80350684600F02EF8304646
:1011D00000F05AF81C208DF800008DF801408DF8C1
:1011E00002408DF80350684600F01FF8304600F0CA
:1011F0004BF808208DF800008DF801408DF8024072
:101200008DF80350684600F010F8304600F03CF8C6
:1012100009208DF800008DF801408DF802408DF80E
:101220000350684600F001F8F8BDF0B50F23C4780C
:1012300001784FF0E0220127E4B1D2F80C4D867816
:1012400004F4E064C4F5E064240AC4F10405E34056
:1012500044781E40AC4026433301114481F80034E9
:101260000078410900F01F0002EB81018740C1F8BE
:101270000071F0BD01F01F008740480902EB8000BB
:10128000C0F88071F0BD00000249084302490860BF
:10129000704700000000FA050CED00E0024A114022
:1012A000014302480160704780FFFF1F08ED00E026
:1012B000014908627047000000000E4270470000BC
:1012C00000B58BB003A8FFF78DFD12A000F00AFE59
:1012D00019A000F007FE0398FFF7BAF902460B4683
:1012E00020A000F0FFFD0498FFF7B2F902460B467C
:1012F00023A000F0F7FD08A90EC98DE80E0005A98E
:101300000EC928A000F0EEFD2CA000F0EBFD00209F
:101310000BB000BD0D0A2A2A2A2A2A2A2A2A2A2A9A
:101320002A2A526563656970742A2A2A2A2A2A2A77
:101330002A2A2A2A2A0D0A000D0A0D0A5468616E0B
:101340006B20796F7520666F722074616B696E67B0
:10135000206F75722073657276696365210D0A0DC1
:101360000A000000546F74616C204D696C65733A1B
:1013700020252E3166206B6D0D0A0D0A000000003D
:101380004D6F6E657920416D6F756E743A20524DC8
:101390004220252E3266205975616E0D0A0D0A0D08
:1013A0000A00000025642D25642D25642025643A5B
:1013B00025643A25640D0A0D0A0D0A002A2A2A2AF4
:1013C0002A2A2A2A2A2A2A2A2A2A2A2A2A2A2A2A7D
:1013D0002A2A2A2A2A2A2A2A2A2A2A0D0A00000028
:1013E000044A0029516901D0014300E08143516161
:1013F0007047000000100240044A0029D16901D062
:10140000014300E08143D1617047000000100240B9
:10141000044A0029116901D0014300E081431161B0
:101420007047000000100240044A0029916901D071
:10143000014300E0814391617047000000100240C9
:10144000044A0029D16801D0014300E08143D16002
:10145000704700000010024001490860704700001A
:10146000400442420248416A41F080714162704743
:101470000010024010B500F039F84FF480342046D7
:1014800000F0C6F800F02AF917490870C0B2012828
:1014900022D11020FFF730FB0220FFF739FB00209C
:1014A00000F0ACF8002000F0E7F8A01100F0DAF846
:1014B0004FF4E011204600F0EFF8012000F0E6F8CC
:1014C000392000F07BF80028FAD0022000F0FCF868
:1014D00000F08CF80828FBD1BDE81040012144F24F
:1014E0004400FFF7A1BF0000140000200B48016872
:1014F00041F0010101604168094A11404160016801
:10150000084A11400160016821F4802101604268AD
:10151000002122F4FE024260816070470010024008
:101520000000FFF8FFFFF6FE10B5204A5168204B7F
:1015300011F00C0103D0042901D0082901D0036067
:1015400011E05168022301F4701103EB91415368DB
:1015500013F4803F02D053689B0301D5154B00E084
:10156000134B594301605168134B01F0F001090915
:101570005C5C0168E1404160546804F4E064240A62
:101580001C5D21FA04F48460546804F46054E40A95
:101590001B5DD940C1605268074B02F44042920B78
:1015A0001B1F9A5CB1FBF2F1016110BD00100240FB
:1015B00000127A0000093D00500000200346002080
:1015C0005909094A012901D1116804E0022901D110
:1015D000116A00E0516A03F01F02012393400B429D
:1015E00000D001207047000000100240024840680F
:1015F00000F00C007047000000100240034A5168E0
:1016000021F0F001014351607047000000100240DA
:101610000B490A6822F480320A600A68B0F5803FFC
:1016200022F480220A6007D0B0F5802F03D1086829
:1016300040F4A02008607047086840F48030F9E763
:1016400000100240064900220A7001F820290128F2
:1016500002D0042802D1052081F820007047000044
:1016600020100240034A516821F4E06101435160B7
:101670007047000000100240034A516821F4605195
:1016800041EAC000506070470010024001490866FE
:101690007047000000004242034B5A68084322F49E
:1016A0007C121043586070470010024001490860E6
:1016B000704700003C04424202490A6A02430A623F
:1016C0007047000000100240034A516821F00301F6
:1016D00001435160704700000010024030B5002403
:1016E0004FF4A0653120FFF769FF641C08B9AC42D4
:1016F000F8D13120FFF762FF002800D0012030BD73
:10170000024A11888143118070470000042800407C
:1017100010B501214FF0C050FFF76EFE0120FFF71A
:10172000C7FDFFF70BF90120FFF78CFF4120FFF702
:1017300045FF0028FAD04FF48070FFF7BDFF01206D
:10174000FFF7B4FF00F018F900F00CF9012108468A
:1017500000F092F800F006F947F6FF7000F0F2F89A
:10176000BDE8104000F0FEB80248018841F01001C9
:1017700001807047042800400248018821F01001D0
:10178000018070470428004070B5164DA9696A6849
:10179000154840F6FF7491421CD10221FFF71DFB52
:1017A000A868A861641EFDD100F02EF84FF46162B4
:1017B000B0FBF2F1E960E86102FB11003C23B0FBF1
:1017C000F3F203FB1203C5E90423BDE8704007A050
:1017D00000F088BB641EFDD1BDE870400221FFF718
:1017E000FEBA000014000020001801400D54696D7D
:1017F000653A2025302E32643A25302E32643A255F
:10180000302E32640D00000002498888098840EAC1
:10181000014070471828004005498B880A8803401A
:10182000D9B2024202D009B10120704700207047AE
:101830000028004010B50120FFF7EEFF002814D06B
:101840000120FFF75DFF094809490068086000F0C2
:1018500089F8FFF7D9FF0749884206D1002000F038
:1018600063F8BDE8104000F07DB810BD18000020FE
:101870002C00002080510100054A0029B2F8001810
:1018800001D0014300E08143A2F800187047000036
:101890000020004010B5FFF7EDFDFFF77FFCFFF7DC
:1018A000D9F900F01BFA01210807FFF7A5FD042074
:1018B000FFF74EF84AF6AA24A04214D012A000F076
:1018C00011FBFFF725FF16A000F00CFB00F04AF813
:1018D00000F03EF900F028F800F044F8214604201A
:1018E000FFF73EF809E000F047F800F03BF801216F
:1018F0000846FFF7C1FF00F035F8FFF7B3FDBDE87C
:10190000104008A000F0EEBA0D0A0A2052544320FD
:10191000636F6E6669677572696E672E2E2E2E0074
:101920004F4B21000D0A200000B50246FFF71CFFB7
:101930000348110C018082805DF804EBFFF71CBFA7
:101940001828004000B50246FFF70EFF0448C2F316
:101950000341018082805DF804EBFFF70DBF0000BA
:1019600008280040034800BFB0F804188906FBD5DA
:1019700070470000002000400648B0F8041821F02D
:101980000801A0F8041800BFB0F804180907FBD537
:1019900070470000002000407047704770B501217B
:1019A0008C07204600F0A2F800280ED00121204626
:1019B00000F033F810490878401C08700F48007890
:1019C00020B90F490868401C086070BD0D480068C8
:1019D000FEF73EFE0CA20CCAFEF79BFD0C4E044621
:1019E0000D463068FEF734FE2B462246FEF7D5FC46
:1019F000FEF740FE306070BD100000201100002096
:101A00000800002048000020000000000020AC403A
:101A100004000020C94301827047C9430182704716
:101A20000029018802D041F0010102E040F2FE32BB
:101A300011400180704700002A4A10B5811A131521
:101A4000D41490423BD010DCB0F1804F22D0264914
:101A5000401826D098422BD0A04241D10121082025
:101A6000FFF7D6FC0021082036E099422ED0B1F5D0
:101A70008E3F0DD0B1F5923F32D101214C0320466B
:101A8000FFF7DEFC2046BDE810400021FFF7D8BC80
:101A90000121F4E701210846FFF7BAFC00210120EB
:101AA0001AE001210220FFF7B3FC0021022013E01D
:101AB00001210420FFF7ACFC002104200CE00121EF
:101AC0001020FFF7A5FC0021102005E001212020B7
:101AD000FFF79EFC00212020BDE81040FFF798BCD6
:101AE00010BD00000010004000FCFFBF0246138A3A
:101AF000002092890B4202EA010202D0002A00D0A3
:101B000001207047002A828901D00A4300E08A43FD
:101B10008281704710B5028802F08F020280CA8865
:101B20004B8804881A4322430280074B8A889842D4
:101B300082850A88028502D0044A904201D1097A3E
:101B400001860121818210BD002C0140003401403A
:101B500070B5FF26354622A000F0C4F9264800F0F3
:101B6000C1F92548543000F0BDF92348A43000F0F5
:101B7000B9F92148F43000F0B5F920A000F0B2F92D
:101B8000172000F029F90446FF28F9D0214621A0AA
:101B900000F0A8F921A000F0A5F903E03B2000F037
:101BA0001BF90646FF2EF9D031461AA000F09AF92B
:101BB00021A000F097F903E03B2000F00DF9054665
:101BC000FF2DF9D0294613A000F08CF94FF4616085
:101BD0004443C6EB061004EB8000284470BD0000AF
:101BE0000D0A2054696D652053657474696E672E03
:101BF0002E2E0A0D00000000FC3000080D0A0A20FD
:101C0000506C656173652053657420486F757273FD
:101C10003A0000003A202025640000000D0A202030
:101C2000506C6561736520536574204D696E7574E1
:101C30006573A3BA000000000D0A2020506C656196
:101C4000736520536574205365636F6E6473A3BA24
:101C50000000000010B501210846FFF7CDFB4FF052
:101C600080442046FFF7E8FE0E484FF4FA61818079
:101C700048F69F4101800021C180418001462046F5
:101C8000FFF748FF01212046FFF7C4FE012211465D
:101C90002046FFF737FF2046BDE810400121FFF73F
:101CA000BFBE00006400002030B5028A4FF2FF037F
:101CB0001A400B884D888C88C9882B430C432343DA
:101CC0001343038230BD0029818902D041F40051C1
:101CD00001E021F4005181817047000030B587B0E8
:101CE00000244FF40070ADF80800114DADF8044029
:101CF000ADF80640ADF80A4001A92846FFF7D4FF29
:101D00004FF4E1300390ADF814400C20ADF81040D2
:101D1000ADF81600ADF81240ADF8184003A92846FA
:101D200000F010F801212846FFF7CDFF07B030BDC5
:101D3000003801400246128800200A4200D00120EB
:101D40007047000030B50446008A85B00D464CF659
:101D5000FF710840E98801432182A0894EF6F31102
:101D60000840A9882A8911436A8902431143A18145
:101D7000A08A4FF6FF410840A9890143A182684625
:101D8000FFF7D2FB1148844201D1039800E002988A
:101D9000642200EBC00101EB001029686FF018030A
:101DA0008900B0FBF1F0B0FBF2F109010D095D43D0
:101DB000322300EB850003EB0010B0FBF2F000F0E3
:101DC0000F000843208105B030BD000000380140FD
:101DD0008088C0F3080070472DE9FC4100240746C5
:101DE0006D462046214685E80300164E20213046E8
:101DF000FFF7A0FF0028F9D03046FFF7E9FF45F8CC
:101E00002400641C05EB840050F8040C30380A28C8
:101E100003D30DA000F066F8641E022CE6D3DDE9C2
:101E20000001144A00EB800002EB40000844B84275
:101E300006D9394610A000F055F8FF20BDE8FC8116
:101E4000C0B2FBE7003801400A0D506C6561736554
:101E500020656E7465722076616C6964206E756DA4
:101E6000626572206265747765656E203020616EF0
:101E700064203900F0FDFFFF0A0D506C6561736549
:101E800020656E7465722076616C6964206E756D74
:101E9000626572206265747765656E203020616EC0
:101EA0006420256400000000C1F3080181807047B0
:101EB000FEE73CB5FFF752F94FF4FC644FF4784568
:101EC000CDE900541E2100230422084600F0E2FE62
:101ED000CDE900540023062296213C2000F088FE24
:101EE0003CBD00000FB410B503A9044B044A02988E
:101EF00000F0F8F810BC5DF814FB0000652900083C
:101F0000600000200FB410B504A9074B02AA039883
:101F100000F0E8F8044602A9002000F08BFC2046FF
:101F200010BC5DF814FB00003528000802E008C86A
:101F3000121F08C1002AFAD170477047002001E043
:101F400001C1121F002AFBD1704700002DE9FF5F7D
:101F500084B08B46DDE9060100234FEA1154DDE928
:101F6000128959405840084310D1012454A3B9F1B3
:101F7000010F02D16FEA080100E000210498C0E9D6
:101F80000249C0E9003108B0BDE8F09FA4F2FF3477
:101F900044F6105044432514B9F1010F404601D1D5
:101FA000464201E02E1A761C46A003C87442CDE9D1
:101FB000000146A0D0E900A7002E14DB344612E051
:101FC000E00707D0DDE9002339465046FEF72DFA39
:101FD00082460F46DDE9002319461046FEF725FA32
:101FE0006410CDE90001002CEAD1DDE90601002EE4
:101FF0003B46524602DAFEF718FA01E0FEF789FA8C
:1020000034A20CCA04460E46FEF760FC03D84FF01B
:10201000FF36374609E031A00CC831462046FEF7AE
:10202000BCF9FEF739FC06460F4610240DE0002CE3
:1020300012DB00230A2239463046FEF74EFB3032CF
:102040000BF8042006460F46641E002387EA0301AE
:1020500086EA03000843EAD1641C0BEB0400C4F1D8
:10206000110A0390B9F1010F0FD1002387EA030190
:1020700086EA0300084303D1AAEB08056D1E18E0A9
:102080004FF011084FF0000986E70023012487EA8A
:10209000030186EA0300084301D1C24502DD0024A2
:1020A0006D1C04E003DA4FF00004A5F10105002CDB
:1020B000EAD00498C0E902A945600399016062E78B
:1020C000300000000000000000002440000000007C
:1020D0000000F03F000000000000F043000000009E
:1020E0000000E03F2DE9FF4F99B006469A460F46A3
:1020F000002564E3252879D10024761CFD4AA046FA
:10210000012117943378203B01FA03F0104202D0EA
:102110000443761CF6E730782A2816D101CF1790B1
:10212000002803DA404244F40054179044F00204BB
:10213000761C11E0179844F0020400EB800002EBDB
:1021400040000844761C179001E06FF02F023178B0
:10215000A1F130000928EDD930782E2818D116F8D1
:10216000010F44F004042A280BD157F8048B761C85
:102170000EE008EB880002EB400001EB0008761C43
:1021800001E06FF02F023178A1F130000928F0D979
:1021900030786C280ED008DC4C2816D068280CD07B
:1021A0006A2813D144F400140FE074280DD07A2863
:1021B0000CD10AE044F4801401E044F44014717836
:1021C000814202D1761C04F58014761C3078662892
:1021D0000BD013DC582827D009DC002872D0452802
:1021E000F6D04628F4D0472885D19DE1EFE2632858
:1021F00032D0642877D06528F6D195E1702871D067
:102200000CDC6728F1D069286DD06E280ED06F28BD
:10221000EAD108210022CDE91212ADE0732825D0C1
:10222000752870D07828DFD11021F3E7C4F302506D
:10223000022804D13868E917C0E900510AE00328F0
:1022400002D13868058005E00428386801D105709E
:1022500000E005603F1DB1E201CF8DF85400002081
:102260008DF855000DF1540B012003E057F804BB25
:102270004FF0FF3061074FF000010CD501E009F18C
:1022800001018946414510DA8145F8DB1BF8091048
:102290000029F4D109E001E009F1010189468142F8
:1022A000FADB1BF809100029F6D117985346A0EB6A
:1022B0000908214640461B9A00F0A6FA284400EB84
:1022C000090506E07FE20EE01BF8010B52461B9960
:1022D0009047B9F101008146F6D253462146404667
:1022E0001B9A1DE140E00A200021CDE91201C4F350
:1022F0000250022808D1FF1D27F00707D7E90091F7
:102300000837159112E02DE002CFCA1789461592C1
:10231000032804D10FFA89F1CA17894615920428B7
:1023200004D14FFA89F0C117814615910023159900
:10233000B9EB0300994108DA1599D9F1000961EB6D
:1023400041014FF02D00159102E0200504D52B200E
:102350008DF82000012003E0E00701D02020F7E7FE
:10236000834657E00A2155E710210022CDE91212D9
:1023700044F004044FF00808C4F30251022907D1C5
:10238000FF1D27F00707D7E90092083715920BE0E9
:10239000002357F8049B1593032901D11FFA89F9EB
:1023A000042901D109F0FF094FF0000B210731D5B5
:1023B000702804D140208DF82000012013E0DDE9D1
:1023C00012011022504008430ED10023159989EACA
:1023D00003005940084307D030208DF820003078A2
:1023E0008DF8210002208346DDE9120108225040C9
:1023F00008430FD10023159989EA03005940084387
:1024000001D1600706D530208DF820004FF0010B78
:10241000A8F10108317838A0582900D03BA00790D6
:1024200012A809900DE0DDE9122348461599FEF740
:1024300054F9079B81469B5C099A521E09921370BE
:1024400015910023159989EA030059400843EAD100
:1024500009990AA8401A00F12009600702D524F45E
:10246000803401E04FF001080020C84501DDA8EBF1
:1024700009001690484417995844081A1790E00329
:1024800006D4534621461B9A179800F0BDF905441F
:10249000002008E008A810F8080052461B99904751
:1024A0006D1C08F1010080465845F3DBE0030CD5B4
:1024B000534621461B9A179800F0A6F9054404E0FC
:1024C000302052461B9990476D1C1698411E16915C
:1024D0000028F5DC08E0099809990078491C099161
:1024E00052461B9990476D1CB9F10000A9F10109F2
:1024F000F1DC5EE109280100303132333435363702
:1025000038394142434445460000000030313233FF
:10251000343536373839616263646566000000001F
:1025200000F060F9054449E1600701D44FF0060866
:10253000FF1D27F00707D7E90001CDE902010020C0
:1025400001F00041414008374040084301D0A2A0BB
:1025500007E0A2A0210504D4A1A0E10701D1AFF2B8
:1025600058000790039820F000413078652828D063
:1025700006DC452825D046283AD0472858D103E024
:10258000662835D06728F9D1B8F1010F01DA4FF08C
:10259000010800231122B8F1110F00DC4246CDE9F9
:1025A00000230B460AA912A8029AFFF7CFFC4FF0AE
:1025B000000BC146200748D4149949453CDA084627
:1025C00039E000231122B8F1110F01DA08F10102FC
:1025D000CDE900230B460AA912A8029AFFF7B6FC20
:1025E000012005904FF0000B08F1010913984BE012
:1025F0000123CDE900834FF0004004900B460AA967
:1026000012A8029AFFF7A2FCDDE914904FF0000B2C
:1026100020B9139908F1010001EB0009B8EB09009A
:1026200003D4C0F1FF3B08F10109A9EB08000590B4
:102630002BE0A9F101008146B9F1010F05DD1299E6
:10264000A9F10100085C3028F3D01399414503DA61
:10265000084611F1040F03DA01200590084613E043
:10266000002804DC13998344A9EB010004E0401C1A
:10267000484502DD1398401C81461399A1EB0B00DD
:10268000401C05904FF000400490200705D40599A8
:10269000494502DB4FF0FF30059000218DF82710EF
:1026A00004980DF12708B0F1004F29D002200190C5
:1026B0002B200090049800280EDA404204902D2030
:1026C000009009E00A210498FDF7F1FF0490A8F1B9
:1026D00001003031804601700198411E01910028AF
:1026E000F0DC04980028EDD1A8F10100009900F871
:1026F00001193178804601F0200141F04501017057
:1027000008A8A0EB0800C01D06900798007800B14B
:1027100001200599484400EBE17006990844179997
:10272000081A401E1790E00306D4534621461B9A10
:10273000179800F069F805440798007818B15246D8
:102740001B9990476D1CE00322D5534621461B9AE6
:10275000179800F059F805441AE0BBF1000F07DBA9
:102760001498584504DD12981B9910F80B0001E0ED
:102770001B9930205246904705986D1C401E0BF166
:10278000010B059004D12E2052461B9990476D1CD9
:10279000B9F10000A9F10109DFDC05E018F8010B2F
:1027A00052461B9990476D1C0698411E06910028C1
:1027B000F4DC534621461B9A1798B1E6761C307814
:1027C00000287FF497AC28461DB0BDE8F08F524634
:1027D0001B9990476D1CF1E72D0000002B000000B5
:1027E000200000002DE9F0410446002517461E4652
:1027F000880406D503E039462020B0476D1C641ECE
:10280000F9D52846BDE8F0812DE9F04104460025C0
:10281000302790461E46C80300D42027880406D4DB
:1028200003E041463846B0476D1C641EF9D5284682
:10283000BDE8F0810A68531C0B601070704770B5DA
:102840000C460646014615462020FEF77FFC214631
:102850002120FEF77BFC31465020FEF777FC214615
:102860005220FEF773FC29465120FEF76FFC1946F3
:102870005320FEF76BFCBDE87040FEF761BC000022
:102880002DE9F04104464FF4967091FBF0F01546A7
:10289000FDF7BBFE2146FDF7AAFC294F29492A4E28
:1028A0000446B5B138468C4208DB2046FDF7A6FC4D
:1028B0000121FDF7E6FC3946FDF799FC0546314656
:1028C000B44234DD2046FDF799FC2946FDF78FFC24
:1028D0002CE01EA58C4201DA03CD0BE02046FDF76B
:1028E0008DFCFDF7B5FE1BA20CCAFDF79EFD0CCDBD
:1028F000FDF753FDFDF7BEFE05463146B44216DD39
:102900002046FDF77BFCFDF7A3FE044613A00CC890
:102910002046FDF78AFD06460C462846FDF798FE40
:1029200023463246FDF739FDFDF7A4FE054639463C
:102930002846FDF773FCBDE8F041FDF770BE0000CE
:1029400000002041000040400000704100000000F5
:1029500000002640333333333333034033333333D0
:102960003333F33F10B50446C1B20548FFF79CFA74
:10297000044800BFB0F800180906FBD5204610BD7A
:1029800000380140003001402DE9FF4F8146002012
:1029900081B040F23F13EF2201460090FFF74FFF56
:1029A000DFF8CCB000985DE00398002610F801AB8A
:1029B0000390029800248719BAF12E0F08D104EB76
:1029C00086010BEB410000F58050B0F8000614E0E2
:1029D000BAF1200F08D104EB86000BEB400000F5A4
:1029E0008050B0F8000808E04FEA0A20A0F54050F7
:1029F000204400EB86003BF81000002500F0FF08A3
:102A0000C5F1070128FA01F0C00709EB050000EB4A
:102A1000C40003D080B2B9B20E9A0DE007EB870173
:102A2000144B00EB811203EB4201497813F812209A
:102A300080B242EA0122B9B200F0D6F96D1CADB203
:102A4000082DDDD3641CE4B2042CB5D3761CB6B2D9
:102A5000402EAED309F120001FFA80F90098401CE7
:102A600080B20090049988429ED305B0BDE8F08FF3
:102A7000345000087C7300082DE9FF4F4FF0000B25
:102A8000804640F23F13EF2259465846FFF7D7FEE3
:102A900054E00298002610F801AB0290019800253E
:102AA00010EB0607BAF12D0F07D1274905EB4600B9
:102AB00001EB4000B0F828050AE0AAF1300000EB75
:102AC000401005EB4000204900EB460031F81000B3
:102AD0005FF0000400F0FF09C4F1070129FA01F0DA
:102AE000C00708EB040000EBC50003D080B2B9B208
:102AF0000D9A0DE007EB8701144B00EB811203EBFD
:102B00004201497813F8122080B242EA0122B9B298
:102B100000F06AF9641CA4B2082CDDD36D1CEDB280
:102B2000022DBFD3761CB6B2212EB7D308F1100008
:102B30001FFA80F80BF101001FFA80FB03998B4507
:102B4000A7D3BDE8FF8F0000884A00087C73000807
:102B50002DE9FF4F07462448934600EB03293AE04E
:102B60004FF000080199002501EB0806B9F800A014
:102B70005FF00004C4F107012AFA01F0C00707EB77
:102B8000040000EBC50003D080B2B1B20D9A0DE095
:102B900006EB8601154B00EB811203EB42014978ED
:102BA00013F8122080B242EA0122B1B200F01CF9FF
:102BB000641CA4B2082CDDD36D1CADB209F102096E
:102BC000042DD3D308F101001FFA80F8B8F1210FCA
:102BD000C8D32037BFB25FEA0B00ABF1010101F0AF
:102BE000FF0BBDD1BDE8FF8F346A00087C7300087D
:102BF0002DE9FF4F0746AF2043432448934600EB9F
:102C000043093AE04FF000080198002500EB080660
:102C1000B9F800A05FF00004C4F107012AFA01F03E
:102C2000C00707EB040000EBC50003D080B2B1B2CF
:102C30000D9A0DE006EB8601154B00EB811203EBBC
:102C40004201497813F8122080B242EA0122B1B25F
:102C500000F0CAF8641CA4B2082CDDD36D1CADB220
:102C600009F10209052DD3D308F101001FFA80F8FC
:102C7000B8F1230FC8D32837BFB25FEA0B00ABF11E
:102C8000010101F0FF0BBDD1BDE8FF8F44400008FA
:102C90007C7300082DE9FF4F07462549C3EBC300AD
:102CA000934601EBC0193AE04FF000080198002567
:102CB00000EB0806B9F800A05FF00004C4F10701BA
:102CC0002AFA01F0C00707EB040000EBC50003D0AF
:102CD00080B2B1B20D9A0DE006EB8601154B00EB08
:102CE000811203EB4201497813F8122080B242EAC4
:102CF0000122B1B200F078F8641CA4B2082CDDD334
:102D00006D1CADB209F10209082DD3D308F1010001
:102D10001FFA80F8B8F1380FC8D34037BFB25FEA66
:102D20000B00ABF1010101F0FF0BBDD1BDE8FF8F3E
:102D3000443200087C7300082DE9FF4F074600214C
:102D40004FF0020BDFF8989040F23F13EF22084655
:102D5000FFF775FD3BE000BF4FF00008019900252B
:102D600001EB0806B9F800A05FF00004C4F1070108
:102D70002AFA01F0C00707EB040000EBC50003D0FE
:102D800080B2B1B2029A0DE006EB8601154B00EB62
:102D9000811203EB4201497813F8122080B242EA13
:102DA0000122B1B200F020F8641CA4B2082CDDD3DB
:102DB0006D1CADB209F10209022DD3D308F1010057
:102DC0001FFA80F8B8F1210FC8D31037BFB25FEAFD
:102DD0000B00ABF1010101F0FF0BBDD1BDE8FF8F8E
:102DE000784800087C73000810B50446134620207C
:102DF000FEF7ACF921462120FEF7A8F922204FF07A
:102E0000C04108800148038010BD0000000002603E
:102E10002DE9F05F0024FEF73DFD01210E02304652
:102E2000FEF7DEFAFDF77EFEFEF770F8FDF7F2FD25
:102E3000FEF710FF2B49A246C1F804A08B46C1F84B
:102E400008A09BF800005D4608B9FFF732F8287823
:102E5000012807D1C5F804A00024C5F808A000F097
:102E600049F8EEE70228ECD114B9FEF729FA01245B
:102E70001D4D31462846FDF7B0FF6F1539462846EF
:102E8000FDF7ABFFDFF8648001214046FDF7A5FFA9
:102E900002214046FDF7A1FFDFF854904846FDF7B8
:102EA00069FD4846FDF766FD4846FDF763FD31467E
:102EB0002846FDF794FF39462846FDF790FF01218B
:102EC0004046FDF78CFF02214046FDF788FF48464B
:102ED000FDF750FD4846FDF74DFD4846FDF74AFD1C
:102EE000AFE7000000000020000C01400018014086
:102EF000FFFF0F002DE9F04361A003C88BB0CDE9BF
:102F00000901614906A81CC91CC060A003C8CDE91D
:102F1000040160A000680390FEF720F94FF47848A0
:102F20004FF4FC64CDE900844546002302221421BD
:102F30003C20FFF70DFECDE9005402231A46522132
:102F40003C20FFF705FE4FF48E7623462A461421D7
:102F50003046FFF7F1FECDE9005402234E4A4021EE
:102F6000DC20FFF711FDCDE900540423012252219A
:102F70003046FFF7EDFD0A23009301230B2247A102
:102F800006A8FEF7BFFF4A4E4A4FDFF82C916EE0CD
:102F9000FEF7FAFB2878012810D1484D012231684C
:102FA0002868FFF76DFC38602868FDF751FB024682
:102FB00039480B4642A10830FEF7A4FF364ACDE956
:102FC000008445460523083200217C20FFF7DCFC05
:102FD00038680A2190FBF1F22F483BA1C01CFEF794
:102FE00091FF2D4ACDE900540323D21C40217C20BF
:102FF000FFF7CAFC30683C2190FBF1F34FF46161AC
:1030000090FBF1F231A104A8FEF77CFFCDE900545A
:10301000C821052304AA0846FFF72EFD2E482FA13C
:10302000027803A8FEF76EFFCDE90054012303AA3E
:1030300096213220FFF7A8FC29482CA103682948D3
:10304000009303682848026809A8FEF75BFFCDE9F2
:103050000054082309AA8021B420FFF70DFDCDE913
:1030600000540A2306AAA0219120FFF705FD99F834
:1030700000004D4601288BD00BB0BDE8F083000066
:1030800032323A31323A32347CD1020830302D308B
:1030900030000000320000003800002032302530BF
:1030A00032642D253032642D25303264000000005A
:1030B000080000200C000020000000200400002078
:1030C00025352E316600000025336400253032643A
:1030D0002D2530326400000011000020256400001E
:1030E0002800002024000020200000202530326429
:1030F0002D253032642D2530326400000D0A202A3F
:103100002A2A2A2A2A2A2A2A2A2A2A2A2A2A2A2A1F
:103110002A2A2A2A2A2A2A2A2A2A2A2A2A2A2A2A0F
:103120002A2A2A2A2A2A2A2A2A2A2A2A2A2A2A2AFF
:103130002A2A2A2A2A2A2A2A2A2A2A2A2A2A2A2AEF
:103140002A2A2A2A2A2A2A2A2A2A2A200000000091
:103150000D0A202A204E4F54453A202020202020BE
:10316000202020202020202020202020202020205F
:10317000202020202020202020202020202020204F
:10318000202020202020202020202020202020203F
:1031900020202020202020202020202020202A0045
:1031A0000D0A202A2049662074686520696E7075B2
:1031B00074206E756D626572206973202820303C22
:1031C000743C3920292C7375636820617320273380
:1031D000272C594F55204D55535420696E707574E6
:1031E000202730332720696E7374656164202A00BC
:1031F0000D0A202A2A2A2A2A2A2A2A2A2A2A2A2A76
:103200002A2A2A2A2A2A2A2A2A2A2A2A2A2A2A2A1E
:103210002A2A2A2A2A2A2A2A2A2A2A2A2A2A2A2A0E
:103220002A2A2A2A2A2A2A2A2A2A2A2A2A2A2A2AFE
:103230002A2A2A2A2A2A2A2A2A2A2A2A2A2A2A20F8
:10324000000000000000000000000000000000007E
:10325000000000000000000000000000000000006E
:10326000000000000000000000000000000000005E
:1032700000000000000000000000000000000F003F
:1032800080000000000000000000000000000F00AF
:10329000E0000000000000000000000000001F002F
:1032A000E0000000000000000000000000001F001F
:1032B000C0000000000000000000000000003F000F
:1032C00080000000000000000000000000003F003F
:1032D00080000000000000000000000000007F00EF
:1032E00000000000000000007F00FF00F800FF0069
:1032F0000000000000000000FF00FF00F800FE00DA
:103300000000000000000000FF00FF00F900FF00C7
:10331000FF00800000000000FF00FF00F100FF0040
:10332000FF0080000000000000000700E300FF0035
:10333000FF0080000000000000000700E700FF0021
:10334000FF0080000000000000000F00C700FF0029
:10335000FF0080000000000000000F00CF00E00030
:10336000010080000000000038001F009F00C00026
:103370000300800000000000F8003F009F00C00034
:103380000300800000000100FC003F003F008000BF
:103390000700800000000100FC007F007F003F006C
:1033A0008F00800000000100FE00FE00FE003F00D4
:1033B0009F00800000000100FE00FD00FE003F00B5
:1033C0009F00800000000000FF00FD00FC007F0067
:1033D0008000000000000000FF00F800F8007F00FF
:1033E00000000000000000007F00F00000007F00EF
:1033F00000000000000000007F00F0000000FE0060
:1034000000000000000000007F00E0000000FE005F
:1034100000000000000000003F00C0000100FC00B0
:1034200000000000000000003F00C0000100FC00A0
:1034300000000000000000003F00C0000300FC008E
:1034400000000000000000007F00C0000300FC003E
:103450000000000000000000FF00E0000700FC008A
:103460000000000000000100FF00E0000F00FC0071
:103470000000000000000300FF00E0000F00FC005F
:103480000000000000000700FF00F0001F00FC002B
:103490000000000000000F00F700F0003F00FE00F9
:1034A0000000000000001F00E700F0007F00FE00A9
:1034B0000000000000001F00C700F000FF007E00B9
:1034C0000000000000007F008700F100FE007F0088
:1034D000000000000000FF000300F300FC007F007C
:1034E000000000000100FE000300C700F8007F009C
:1034F000800000000300FE0000001F00F0007F00BD
:10350000C00000000700FC0000003F00E0003F009A
:10351000E00000000F00F8000000FF00C0003F00C6
:10352000F00000000F00F0000300FF0080001F000B
:10353000FC0000000700E0000F00FE0000000F008C
:10354000FC0000000300C0003F00FC00000007007A
:10355000FC000000000000003F00F000000003003D
:10356000F8000000000000001F00E0000000010063
:10357000F0000000000000000F00800000000000CC
:10358000E0000000000000000E000000000000004D
:10359000000000000000000000000000000000002B
:1035A000000000000000000000000000000000001B
:1035B000000000000000000000000000000000000B
:1035C00000000000000000000000000000000000FB
:1035D00000000000000000000000000000000000EB
:1035E00000000000000000000000000000000000DB
:1035F00000000000000000000000000000000000CB
:1036000000000000000000000000000000001C009E
:1036100000000000000000000300E00000007E0049
:1036200000000000000000000F00E0000100FE00AC
:1036300000000000000000000F00E0003F00FF005D
:10364000FF008000000000000F00E0007F00FF008E
:10365000FF008000000000000F00E0007F00FF007E
:10366000FF008000000000000F00E000FF0083006A
:10367000FF008000000000000F00E000FC000300DD
:10368000FF008000000000000F00E000FC000700C9
:10369000F0000000000000000F00E100FC00070047
:1036A000F0008000000000000F00E100F8000700BB
:1036B000E0008000000000000F00E100F8000F00B3
:1036C000E0008000000000000E000300F8000F0082
:1036D000C10080000000000000000300F0000F00A7
:1036E000C10080000000000000000300F0001F0087
:1036F000C10080000000000000000700F0001F0073
:10370000830080000000000000000700E0001F00B0
:103710008300800000000700FF008700E0003F00FA
:103720008300800000000F00FF008F00E0003F00DA
:103730000700800000000F00FF008F00C0003F0066
:103740000700800000000F00FF000F00C0007F0096
:103750000F00800000000F00FF001F00C0007E006F
:103760000F008000000000007E001F0080007E002F
:103770000F008000000000007E001F008000FE009F
:103780001F00800000000000FE003F008000FC00E1
:103790001F00800000000000FC003F000000FC0053
:1037A0001F00800000000000FC007F000100FC0002
:1037B0003F00800000000100FC007F003D00F80099
:1037C0003F00000000000100F8007E00FD00F8004E
:1037D0007F00000000000100F800FF00FB00F8007F
:1037E000FF00000000000300F800FF00FB00F700EE
:1037F000FE00000000000300F100FF00FF00F700E2
:10380000FE00000000000300F300FF00E700F700E7
:10381000FC00000000000700F300FF008700E70045
:10382000F800000000000700E300FC000F00E700C4
:10383000C000000000000F00E300F0000F00E000F7
:103840000000000000000F00E100C0000F00C000F9
:103850000000000000000F00C00000001F00C000BA
:103860000000000000001F00C00000001F00C0009A
:103870000000000000001F00E00000001F008000AA
:103880000000000000007F00F00000001F0080002A
:10389000000000000000FF00FE000000000000002B
:1038A000000000000300FF00FF00F800000000001F
:1038B0001E0000000700F900FF00FF00FF00FF00EE
:1038C000FE0000001F00F000FF00FF00FF00FF00EF
:1038D000FC0000001F00E0001F00FF00FF00FF00D1
:1038E000F80000001F00C0000300FF00FF00FF0001
:1038F000F00000000F00000000000700FF00FF00C4
:10390000E0000000000000000000000000000000D7
:1039100000000000000000000000000000000000A7
:103920000000000000000000000000000000000097
:103930000000000000000000000000000000000087
:103940000000000000000000000000000000000077
:103950000000000000000000000000000000000067
:103960000000000000000000000000000000000057
:103970000000000000000000000000000000000047
:1039800007008000000000000000000000000100AF
:10399000FF00800000000000000000000700FF00A2
:1039A000FF008000000000000300FF00FF00FF0098
:1039B000FF008000000000000300FF00FF00FF0088
:1039C000FF008000000000000300FF00FF00FF0078
:1039D000FF000000000000000300FF00FF00FC00EB
:1039E00000000000000000000300FF008300F8005A
:1039F0000000000000000000000000000300F000D4
:103A00000000000000000000000000000700F000BF
:103A10000000000000000100FF00FF00FF00FF00A9
:103A2000FF00800000000100FF00FF00FF00FF001A
:103A3000FF00800000000100FF00FF00FF00FF000A
:103A4000FF00800000000300FF00FF00FF00FF00F8
:103A5000FF00800000000300FF00FF00FF00FF00E8
:103A6000FF00800000000000000000001F00C000F8
:103A7000000000000000000000003F001F00CF0019
:103A8000E10080000000000000003F001F008F00E8
:103A9000E30080000000000000007F003F008F0076
:103AA000CF00800000000300FF00FE003F009F00E9
:103AB000FF00800000000300FF00FE003F001F0029
:103AC000FF00800000000300FF00FE007F001F00D9
:103AD000FF00800000000700FF00FC007F003F00A7
:103AE000FE00000000000700FF00FC007E003F0019
:103AF000E0000000000000000100FC00FE003F00AC
:103B000087000000000000000100F900FE007E00B8
:103B10000F008000000000000F00FB00FE007E0090
:103B20000F00800000000000FF00F300FE007E0098
:103B30001F00800000000F00FF00F700FF00FF00E3
:103B4000FF00800000001F00FF00FF00FF00FF00DB
:103B5000FF00800000001F00FF00FF00FF00FF00CB
:103B6000FF00000000001F00E700FF00FF00FF0053
:103B7000FE00000000001F008700FF00FF00FF00A4
:103B8000F800000000001C000100FF00FF00E00042
:103B900000000000000000000300FF00FF00E00044
:103BA00000000000000000000F00F700EF00F80028
:103BB00000000000000000001F00EF00EF00FC000C
:103BC00000000000000000007F00CF00C700FF00E1
:103BD0000000000000000100FF009F00C300FF0084
:103BE000C000000000000700FE001F00C300FF002F
:103BF000F800000000001F00FC001F008100FF0013
:103C0000FE0000000000FF00F0003F008000FF0009
:103C1000FE0000000700FF00C0003F0080007F00A2
:103C2000FC0000000700FF0080003F0000001F00B4
:103C3000F80000000700FE0000007F0000000F00F9
:103C4000F80000000700F80000007F0000000100FD
:103C5000F00000000300E0000000FF000000000092
:103C600000000000030080000000FE0000000000D3
:103C700000000000000000000000FE000000000046
:103C800000000000000000000000FE000000000036
:103C90000000000000000000000000000000000024
:103CA0000000000000000000000000000000000014
:103CB0000000000000000000000000000000000004
:103CC00000000000000000000000000000000000F4
:103CD00000000000000000000000000000000000E4
:103CE00000000000000000000000000000000000D4
:103CF00000000000000000000000000000000000C4
:103D00000000000000000000000000000100FC00B6
:103D10000000000000000000000000000100FC00A6
:103D20000000000000000000000000000100FC0096
:103D30000000000000000000000000000100FC0086
:103D4000000000000000000000007C000300F800FC
:103D50000F0080000000000000007F008300F800DA
:103D60000F008000000000000000FF008300F00052
:103D70001F008000000000000100FF000700F000AD
:103D80001F008000000000000100FE000700F0009E
:103D90003F008000000000000300FC000700E0007E
:103DA0007F008000000000000700FC000F00E00022
:103DB0007F000000000000000700F8000F00E00096
:103DC000FF000000000000000F00F0001F00C10015
:103DD000FE000000000000001F00F0001F00C300F4
:103DE000FE000000000000001F00F8001F00C300DC
:103DF000FF000000000000003F00FE003F008700C1
:103E0000FF008000000000007F00FE003F008F00E8
:103E1000FF00800000000000FF00FF003F009F0047
:103E2000FF00800000000100FE00FF00FF003F00D7
:103E3000DF00800000000300FE00FF00FF007F00A5
:103E40009F00800000000700FC007F00FF00FF00D3
:103E50000F00800000000F00F8007F00FF00FE0050
:103E60000700800000001F00F0003E00FF00FE0081
:103E70000700800000003F00E0003C00FF00FC0065
:103E80000300800000003F00C0000100FF00F800B8
:103E90000000000000003F0080000100FF00F00073
:103EA0000000000000000F0000000100F900E00029
:103EB000000000000000000000000300F800000007
:103EC000000000000000000000000300F8000000F7
:103ED000000000000000000000000300F0000000EF
:103EE0000000000000000F00FF00FF00FF00FF00C7
:103EF000F800000000000F00FF00FF00FF00FF00BF
:103F0000F800000000000F00FF00FF00FF00FF00AE
:103F1000F800000000001F00FF00FF00FF00FF008E
:103F2000F000000000001F00FF00FF00FF00FF0086
:103F3000F00000000000000000000F00C0000000C2
:103F4000000000000000000000001F00C000000092
:103F5000000000000000000000001F00C000000082
:103F6000000000000000000000003F008000000092
:103F7000000000000000000000003F008000000082
:103F8000000000000000000000003F008000000072
:103F9000000000000000000000007F0000000000A2
:103FA000000000000F00FF00FF00FF00FF00FF0007
:103FB000FC0000001F00FF00FF00FF00FF00FF00EB
:103FC000FC0000001F00FF00FF00FF00FF00FF00DB
:103FD000F80000001F00FF00FF00FF00FF00FF00CF
:103FE000F80000001F00FF00FF00FF00FF00FF00BF
:103FF000F0000000000000000000000000000000D1
:1040000000000000000000000000000000000000B0
:1040100000000000000000000000000000000000A0
:104020000000000000000000000000000000000090
:104030000000000000000000000000000000000080
:104040000000000000000000000000000000000070
:10405000000000000000000000000000C00003009D
:10406000C00000000300C0000300C0000000010009
:10407000E3008300800000000100E300FF00F00087
:1040800000000100E700E700900000000100E000F0
:10409000070000000000010087008F0010000000F2
:1040A00000000700FF00F0000000000007000E0005
:1040B00000000000000000001E0000000000FF00E3
:1040C00000001E0000000000FE003F00FF00F000A6
:1040D00000001E003F00FF00F00000001E00000076
:1040E0000000000000001C000000000000000000B4
:1040F0003C001F00FF00E00000003C001F00FF002C
:10410000E000000038003C000100C0000000780022
:104110003C000100C000000070003F00FF00C00034
:10412000000070007F00FF0080000000F0007800B9
:10413000030080000000E60070000700800000001F
:10414000FE00FF00FF0000000100FE00FF00FF0076
:1041500000000100F800E0000F0000000300F10083
:10416000E0000E0000000700C100E0000E000000AB
:1041700003008100C0001E00000000000300C0001A
:104180007C00000000000300C0007C000000000074
:1041900000000000600000000000000000000000BF
:1041A000000000000000000000000000000000000F
:1041B00000000000000000000000000000000000FF
:1041C0000000000000000300F00000000700FF00F6
:1041D000FF00F00000000700FF00FF0000000000EB
:1041E0000700F100E0000000000000000300E00014
:1041F00000000000000007008100800000000000B7
:104200001F000300C000000000003C000F00C000C1
:1042100000000000F0001F00000000000700FF0089
:10422000FC00000000000700FF00F000000000009C
:1042300007008700C3000000000000001F000F00FF
:104240000000000000007C000F0080000000010062
:10425000F0000700C00000000F00C0000300E000F5
:1042600000007F00FF00FF00F00000007F00FF0063
:10427000FF00F000000070000F000000F0000000E0
:1042800000000E000000C000000018001E00180012
:10429000000000003C001E003C00000000007C000C
:1042A0001C007E0000000000F0003C003E0000000A
:1042B0000300E0003C001F0000000700C0003800C1
:1042C0000F0080001F0000007800070080000E0033
:1042D0000700F0000600000000000700F0000000EA
:1042E0000000000007008000000000000000000047
:1042F00000000000000000000000000000000000BE
:1043000000000000000000000000000000000000AD
:10431000000000000000000070000000000000002D
:10432000000078000000000000000000F000000025
:10433000000000000000F0007F00F000000001001D
:10434000E000FF00F00000000100C00000000000DD
:1043500000000300C0000000300000003F00FF002C
:104360000000700000007F00FE000100F00000006F
:1043700067001E000300C00000000F001C000700C3
:10438000800000000E003C000700800000001C00C0
:1043900038000700000000003C0078000F0000001B
:1043A0000000380076000F00000000007800F700E1
:1043B000FF00F0000000F000EF00FF00F000000040
:1043C000E100E0001E0000000100E100C0001C0050
:1043D00000000300F30080003C0000000100FF002B
:1043E00080003C00000000007F000000380000005A
:1043F00000003F0000007800000000003F00800047
:104400007800000000007F00C00070000000000085
:10441000F7008000F00000000300E3000000E0006F
:1044200000000F00C0000100E00000003F0000009D
:104430001F00E00000003E0000001F00C000000060
:10444000380000001C000000000000000000000018
:10445000000000000000000000000000000000005C
:10446000000000000000000000000000000000004C
:1044700000000000000000007800000000000000C4
:10448000000078000000000000000000780000003C
:1044900000000000000078000000000000000000A4
:1044A0006000000000001F00FF00FF00F00000009F
:1044B0001F00FF00FF00F00000001E0000000000D1
:1044C000100000003C0000000000100000003C0054
:1044D0000E000000300000003C000F000000300023
:1044E000000000001E0000003000000000003C0042
:1044F00000000000000000003C000000000001007F
:1045000080007800000000000100FF00FF00FF00B5
:10451000F0000100FF00FF00FF00F00000000300BA
:10452000C0003C00000000000300C0007800000054
:10453000000007008000F000000000000F000100F4
:10454000E000000000001F00C300E00000000000C9
:104550000F00FF00C000000000000100FF0080000D
:104560000000000000007F0080000000000000004C
:10457000FF00E000000000000700F700F800000066
:1045800000003F00C100FE0000000700FF00000027
:10459000FE0000000F00F80000003C0000000F00CB
:1045A000C0000000180000000C0000000000000027
:1045B00000000000000000000000000000000000FB
:1045C00000000000000000000000000000000000EB
:1045D000000000000000700000000000000000006B
:1045E000F8000000000000000000F80000000000DB
:1045F00000000100FC000000000000000700FC00BB
:104600000000000000000F00BE00000000000000DD
:104610001E001E000000000000003C001F00000003
:1046200000000000F8000F00800000000300F00010
:104630000700E00000000F00C0000300F0000000D1
:104640003F0080000100F0000000FF00FF00FF00BD
:10465000F0000000F300FF00FF00B00000000000C9
:1046600007008000000000000000070000000000BC
:10467000000000000F0000000000000000000F001C
:1046800000000000000000000E000000000000001C
:104690003C001E000700000000003F00FF00FF007C
:1046A000000000007F00FF00FF000000000000008D
:1046B0003C0000000000000000003C000000000082
:1046C000000000003800000000000000000078003A
:1046D0000000000000000000780000000000000062
:1046E00000007000000000000F00FF00FF00FF004E
:1046F00000001F00FF00FF00FF000000000000009E
:1047000000000000000000000000000000000000A9
:104710000000000000000000000000000000000099
:104720000000000000000000000000000000000089
:1047300000003C00380070000000000038007800E5
:1047400070000000000038007800F0000000000059
:1047500078007000E00000001F00FF00FF00F00084
:1047600000003F00FF00FF00F00000000000F0002C
:10477000E100C00000000000E100E100C000000016
:104780000100E100E300C00000000100E100C300FF
:10479000C000000000000000000000000000000059
:1047A0000000000000000000FF00FF00FF00F0001C
:1047B0000000FF00FF00FF00F0000100E00000002B
:1047C000000030000100E0000700000030000100A0
:1047D000C0000F0000003000000000000E000000CC
:1047E000000000003F00FF00FF00800000007F008D
:1047F000FF00FF00000000007F00FF00FF0000003E
:10480000000070001C000F0000000000F0003C00E1
:104810000E0000000000F00038001E000000000044
:10482000E00038001C0000000100E00078001C00DF
:1048300000000100E00070003C0000000100C0002A
:104840007300F80000000300C000F300F000000057
:1048500000000000E300C000000000000100E000D4
:104860000000000000000100E00000000000000067
:104870000000000000000000000000000000000038
:104880000000000000000000000000000000000028
:104890001800000078000000180000001800000058
:1048A000180000001800000018007C0018003000FC
:1048B000180060001800C000190080001B000000F4
:1048C0001F0000001B000000190080001900C0003C
:1048D0001800E00018006000180030001C003800CC
:1048E0007F007C00000000000000000000000000CD
:1048F00000000000000000000000000000000000B8
:1049000000000000000000000000000000000000A7
:104910000000000000000000000000000000000097
:104920000000000000000000000000000700380048
:104930002F007C0071008C0061008C0061008C00F5
:1049400061008C0061008C0061008C0061008C00B3
:1049500061008C0061008C0061008C0061008C00A3
:1049600071008E00FB00DF0000000000000000006E
:104970000000000000000000000000000000000037
:10498000000000000000000000000000000008001F
:1049900000001800000018000000100000003000A7
:1049A0000000200000002000000060000000400027
:1049B000000040000000C0000000800001008000F6
:1049C0000100800001000000030000000200000060
:1049D00002000000060000000400000004000000C7
:1049E0000C00000008000000180000001800000083
:1049F0001000000030000000000000000000000077
:104A000000000000000000000000000000000000A6
:104A10000000000000000000080000001800000076
:104A200078000000180000001800000018000000C6
:104A3000180000001800F0001B00F0001C003800F7
:104A400018001800180018001800180018001800A6
:104A50001800180018001800180018001800180096
:104A60001800180018001800180018007E007E00BA
:104A70000000000000000000000000000000000036
:104A80000000000000000000000000000000000026
:104A90000000000000000000000000000100C00055
:104AA0000300200006001000040018000C0018008D
:104AB0000C0018000C000C000C000C000C000C008A
:104AC0000C000C000C000C000C000C000C000C0086
:104AD0000C000C000C000C000C000C000C001C0066
:104AE0000C0018000400180006001000030030003D
:104AF0000100E000000000000000000000000000D5
:104B000000000000000000000000000000000000A5
:104B10000000000000000000000000000000000095
:104B20000000800001008000070080001F0080005E
:104B30000100800001008000010080000100800071
:104B40000100800001008000010080000100800061
:104B50000100800001008000010080000100800051
:104B60000100800001008000010080000100800041
:104B70000300C0001F00F000000000000000000063
:104B80000000000000000000000000000000000025
:104B90000000000000000000000000000000000015
:104BA00000000000030080000F00E000080060002B
:104BB00018007000100030001000300000003000BD
:104BC00000003000000030000000300000006000F5
:104BD000000060000000C0000000C0000100800074
:104BE0000300000003000000060000000C000800A5
:104BF000180018001F00F0003F00F0000000000047
:104C000000000000000000000000000000000000A4
:104C10000000000000000000000000000000000094
:104C200000000000000000000100C0000300E000E0
:104C300004003000040018000800180000001800EC
:104C400000001000000010000000200000004000E4
:104C50000100E000000078000000180000000C00D7
:104C600000000C0000000C0000000C000000080018
:104C7000000018000E0010000E0060000700800009
:104C80000000000000000000000000000000000024
:104C90000000000000000000000000000000000014
:104CA00000000000000000000000000000002000E4
:104CB00000002000000060000000E0000000E000B4
:104CC000010060000100600002006000040060005C
:104CD0000400600008006000080060001000600030
:104CE000300060003F00F8003F00F8000000600066
:104CF0000000600000006000000060000000600034
:104D00000000600000000000000000000000000043
:104D10000000000000000000000000000000000093
:104D20000000000000000000000000000000000083
:104D3000000000000300F8000300F0000200000083
:104D40000400000004000000080000000F00000044
:104D50000F00C0000100E000000070000000300003
:104D60000000100000001000000010000000100003
:104D700000001000000010000000100018002000CB
:104D80001D00C0000F0080000000000000000000B7
:104D90000000000000000000000000000000000013
:104DA0000000000000000000000000000000000003
:104DB00000000000000018000000E000010080007A
:104DC0000300000002000000060000000C000000CC
:104DD0000C0000000C0000001B00E0001C00300074
:104DE000180010001800180018001800180018000B
:104DF0001800180018001800180018001C001800EF
:104E00000C003000060070000300C000000000002D
:104E10000000000000000000000000000000000092
:104E20000000000000000000000000000000000082
:104E30000000000000000000000000000F00F8006B
:104E40000F00F800100010001000100000003000EB
:104E50000000300000002000000020000000600082
:104E600000006000000040000000C0000000C00022
:104E70000000800000008000010080000100800030
:104E8000010000000100000003000000030000001A
:104E90000000000000000000000000000000000012
:104EA0000000000000000000000000000000000002
:104EB0000000000000000000000000000300C0002F
:104EC000060060000C0030001800180018001800E0
:104ED00018001800180018001C0030000E007000A8
:104EE00007006000030080000300C0000600E0002F
:104EF0000C00700018003800180038001800180066
:104F00001800180018001800180010000C003000DD
:104F10000700C000000000000000000000000000CA
:104F20000000000000000000000000000000000081
:104F30000000000000000000000000000000000071
:104F40000300C0000600E0000C0030001800300034
:104F50001800180018001800180018001800180091
:104F60001800180018001800180018000C0038006D
:104F70000F00F80003003000000030000000300097
:104F800000006000000060000000C0000100800020
:104F9000070000001C0000000000000000000000EE
:104FA0000000000000000000000000000000000001
:104FB00000000000000000000000000000000000F1
:104FC00000000000000000000000000000000000E1
:104FD00000000000000000000000000000000000D1
:104FE00000000000000000000000000000000000C1
:104FF0007F00FE0000000000000000000000000034
:1050000000000000000000000000000000000000A0
:105010000000000000000000000000000000000090
:105020000000000000000000000000000000000080
:105030000000000000000000000000000000000070
:105040000000000000000000000000000000000060
:105050000000000000000000000000000000000050
:105060000000000000000000000000000000000040
:105070000000000000000000000000000000000030
:105080000000000000000700F800000000000F0012
:105090001C00000000000E000E00000000001C00BC
:1050A0000700000000003800070000000000380082
:1050B00003008000000078000300800000007800FA
:1050C0000300C000000070000100C0000000F000FC
:1050D0000100E0000000F0000100E0000000F0002E
:1050E0000100E0000000F0000100E0000000F0001E
:1050F0000100F0000100F0000100F0000100F000EC
:105100000100F0000100F0000100F0000100F000DB
:105110000100F0000100F0000100F0000100F000CB
:105120000100F0000100F0000100F0000100F000BB
:105130000100F0000100F0000100F0000100F000AB
:105140000100F0000100F0000100F0000100F0009B
:105150000100F0000100F0000100F0000100F0008B
:105160000100F0000100F0000100F0000000F0007C
:105170000100F0000000F0000100E0000000F0007D
:105180000100E0000000F0000100E0000000F0007D
:105190000100E000000078000300C000000078007B
:1051A0000300C000000078000300C00000003C00C5
:1051B0000700800000003C000700800000001E0087
:1051C0000F00000000000F001E000000000007009C
:1051D000FC00000000000300F800000000000000D8
:1051E00000000000000000000000000000000000BF
:1051F00000000000000000000000000000000000AF
:10520000000000000000000000000000000000009E
:10521000000000000000000000000000000000008E
:10522000000000000000000000000000000000007E
:10523000000000000000000000000000000000006E
:10524000000000000000000000000000000000005E
:10525000000000000000000000000000000000004E
:10526000000000000000000000000000000000003E
:10527000000000000000000000000000000000002E
:105280004000000000000000C0000000000001001D
:10529000C000000000000700C000000000001F0068
:1052A000C000000000007F00C00000000300FF00FD
:1052B000C000000003008700C000000000000300E1
:1052C000C000000000000300C00000000000030058
:1052D000C000000000000300C00000000000030048
:1052E000C000000000000300C00000000000030038
:1052F000C000000000000300C00000000000030028
:10530000C000000000000300C00000000000030017
:10531000C000000000000300C00000000000030007
:10532000C000000000000300C000000000000300F7
:10533000C000000000000300C000000000000300E7
:10534000C000000000000300C000000000000300D7
:10535000C000000000000300C000000000000300C7
:10536000C000000000000300C000000000000300B7
:10537000C000000000000300C000000000000300A7
:10538000C000000000000300C00000000000030097
:10539000C000000000000300C00000000000030087
:1053A000C000000000000300C00000000000030077
:1053B000C000000000000300C00000000000070063
:1053C000E000000000001F00F80000000100FF00E6
:1053D000FF0080000000000000000000000000004E
:1053E00000000000000000000000000000000000BD
:1053F00000000000000000000000000000000000AD
:10540000000000000000000000000000000000009C
:10541000000000000000000000000000000000008C
:10542000000000000000000000000000000000007C
:10543000000000000000000000000000000000006C
:10544000000000000000000000000000000000005C
:10545000000000000000000000000000000000004C
:10546000000000000000000000000000000000003C
:105470000000000000000000000000000000030029
:105480008000000000001F00F000000000007F000E
:10549000F80000000000FF00FC0000000000F00029
:1054A0007E0000000100C0003E0000000100C000BE
:1054B0001F000000010080001F00000001008000AC
:1054C0001F000000030000000F00000003000000A8
:1054D0000F000000030000000F00000000000000AB
:1054E0000F008000000000000F000000000000001E
:1054F0000F000000000000000F000000000000008E
:105500000F000000000000000F000000000000007D
:105510001F000000000000001E000000000000004E
:105520001E000000000000003C0000000000000021
:105530003C000000000000007800000000000000B7
:105540007800000000000000F000000000000000F3
:10555000E000000000000100E00000000000030087
:10556000C000000000000300C000000000000700B1
:105570008000000000000F000000000000000E008E
:105580000000000000001E000000000000003C00C1
:10559000000000000000780000000000000078001B
:1055A0000000C0000000F0000100C0000100E000A9
:1055B000030080000100FF00FF0080000300FF00E7
:1055C000FF0080000700FF00FF0000000700FF0051
:1055D000FF000000000000000000000000000000CC
:1055E00000000000000000000000000000000000BB
:1055F00000000000000000000000000000000000AB
:10560000000000000000000000000000000000009A
:10561000000000000000000000000000000000008A
:10562000000000000000000000000000000000007A
:10563000000000000000000000000000000000006A
:10564000000000000000000000000000000000005A
:10565000000000000000000000000000000000004A
:10566000000000000000000000000000000000003A
:10567000000000000000000000000000000000002A
:10568000C000000000000700F800000000000F004C
:10569000FC00000000001F00FE00000000003C00B5
:1056A0001F000000000030000F00800000006000BC
:1056B000070080000000600007008000000060001C
:1056C0000300800000004000030080000000000094
:1056D00003008000000000000300800000000000C4
:1056E00003008000000000000300800000000000B4
:1056F00003000000000000000700000000000000A0
:1057000006000000000000000C0000000000000087
:105710001800000000000000380000000000000039
:10572000FC00000000000300FF000000000000007B
:10573000FF008000000000000F00C000000000001B
:105740000700C000000000000300E00000000000AF
:105750000100E000000000000100E0000000000087
:105760000000E000000000000000E0000000000079
:105770000000E000000000000000E0000000000069
:105780000000E000000000000000E0000000000059
:105790000000E000000000000100C0000000000068
:1057A0000100C00000002000010080000000F8009F
:1057B000030000000000FC00070000000000FC00E7
:1057C0001C0000000000FF00F800000000007F0047
:1057D000F000000000003F00C000000000000000DA
:1057E00000000000000000000000000000000000B9
:1057F00000000000000000000000000000000000A9
:105800000000000000000000000000000000000098
:105810000000000000000000000000000000000088
:105820000000000000000000000000000000000078
:105830000000000000000000000000000000000068
:105840000000000000000000000000000000000058
:105850000000000000000000000000000000000048
:105860000000000000000000000000000000000038
:105870000000000000000000000000000000000028
:1058800006000000000000000E0000000000000004
:105890001E000000000000001E00000000000000CC
:1058A0003E000000000000003E000000000000007C
:1058B0007E00000000000000DE000000000000008C
:1058C000DE000000000001009E000000000001005A
:1058D0009E000000000003001E0000000000070002
:1058E0001E000000000006001E00000000000C006A
:1058F0001E00000000000C001E0000000000180048
:105900001E000000000038001E00000000003000F3
:105910001E000000000060001E000000000060008B
:105920001E0000000000C0001E0000000100C000BA
:105930001E000000010080001E0000000300800027
:105940001E000000030000001E0000000600000012
:105950001E0000000700FF00FF00C0000700FF005E
:10596000FF00C0000700FF00FF00C0000700FF00AD
:10597000FF00C000000000001E000000000000004A
:105980001E000000000000001E00000000000000DB
:105990001E000000000000001E00000000000000CB
:1059A0001E000000000000001E00000000000000BB
:1059B0001E000000000000001E00000000000000AB
:1059C0001E000000000000001E000000000000009B
:1059D0001E000000000000000000000000000000A9
:1059E00000000000000000000000000000000000B7
:1059F00000000000000000000000000000000000A7
:105A00000000000000000000000000000000000096
:105A10000000000000000000000000000000000086
:105A20000000000000000000000000000000000076
:105A30000000000000000000000000000000000066
:105A40000000000000000000000000000000000056
:105A50000000000000000000000000000000000046
:105A60000000000000000000000000000000000036
:105A70000000000000000000000000000000000026
:105A80000000000000000700FF00C0000000070049
:105A9000FF00800000000700FF00800000000F00F2
:105AA000FF00800000000C000000000000001C004F
:105AB00000000000000018000000000000001800B6
:105AC0000000000000003000000000000000300076
:105AD00000000000000070000000000000006000F6
